{
  "contractName": "BankContract",
  "abi": [
    {
      "inputs": [
        {
          "internalType": "address",
          "name": "_tokenAddress",
          "type": "address"
        },
        {
          "internalType": "uint256",
          "name": "_totalRewardSupply",
          "type": "uint256"
        },
        {
          "internalType": "uint256",
          "name": "timeConstant",
          "type": "uint256"
        }
      ],
      "stateMutability": "nonpayable",
      "type": "constructor"
    },
    {
      "inputs": [],
      "name": "InsufficientAllowance",
      "type": "error"
    },
    {
      "inputs": [],
      "name": "InsufficientBalance",
      "type": "error"
    },
    {
      "inputs": [],
      "name": "NeedsMoreThanZero",
      "type": "error"
    },
    {
      "inputs": [],
      "name": "TokenTransferFailed",
      "type": "error"
    },
    {
      "inputs": [],
      "name": "ZeroAddress",
      "type": "error"
    },
    {
      "anonymous": false,
      "inputs": [
        {
          "indexed": true,
          "internalType": "address",
          "name": "from",
          "type": "address"
        },
        {
          "indexed": false,
          "internalType": "uint256",
          "name": "amount",
          "type": "uint256"
        },
        {
          "indexed": false,
          "internalType": "uint256",
          "name": "time",
          "type": "uint256"
        }
      ],
      "name": "BankTokensWithdrawn",
      "type": "event"
    },
    {
      "anonymous": false,
      "inputs": [
        {
          "indexed": true,
          "internalType": "address",
          "name": "previousOwner",
          "type": "address"
        },
        {
          "indexed": true,
          "internalType": "address",
          "name": "newOwner",
          "type": "address"
        }
      ],
      "name": "OwnershipTransferred",
      "type": "event"
    },
    {
      "anonymous": false,
      "inputs": [
        {
          "indexed": false,
          "internalType": "address",
          "name": "account",
          "type": "address"
        }
      ],
      "name": "Paused",
      "type": "event"
    },
    {
      "anonymous": false,
      "inputs": [
        {
          "indexed": true,
          "internalType": "address",
          "name": "from",
          "type": "address"
        },
        {
          "indexed": false,
          "internalType": "uint256",
          "name": "amount",
          "type": "uint256"
        },
        {
          "indexed": false,
          "internalType": "uint256",
          "name": "time",
          "type": "uint256"
        }
      ],
      "name": "Staked",
      "type": "event"
    },
    {
      "anonymous": false,
      "inputs": [
        {
          "indexed": false,
          "internalType": "address",
          "name": "account",
          "type": "address"
        }
      ],
      "name": "Unpaused",
      "type": "event"
    },
    {
      "anonymous": false,
      "inputs": [
        {
          "indexed": true,
          "internalType": "address",
          "name": "from",
          "type": "address"
        },
        {
          "indexed": false,
          "internalType": "uint256",
          "name": "amount",
          "type": "uint256"
        },
        {
          "indexed": false,
          "internalType": "uint256",
          "name": "time",
          "type": "uint256"
        }
      ],
      "name": "UnstakedAndRewarded",
      "type": "event"
    },
    {
      "inputs": [],
      "name": "name",
      "outputs": [
        {
          "internalType": "string",
          "name": "",
          "type": "string"
        }
      ],
      "stateMutability": "view",
      "type": "function",
      "constant": true
    },
    {
      "inputs": [],
      "name": "owner",
      "outputs": [
        {
          "internalType": "address",
          "name": "",
          "type": "address"
        }
      ],
      "stateMutability": "view",
      "type": "function",
      "constant": true
    },
    {
      "inputs": [],
      "name": "paused",
      "outputs": [
        {
          "internalType": "bool",
          "name": "",
          "type": "bool"
        }
      ],
      "stateMutability": "view",
      "type": "function",
      "constant": true
    },
    {
      "inputs": [
        {
          "internalType": "address",
          "name": "newOwner",
          "type": "address"
        }
      ],
      "name": "transferOwnership",
      "outputs": [],
      "stateMutability": "nonpayable",
      "type": "function"
    },
    {
      "inputs": [],
      "name": "contractInit",
      "outputs": [],
      "stateMutability": "nonpayable",
      "type": "function"
    },
    {
      "inputs": [],
      "name": "renounceOwnership",
      "outputs": [],
      "stateMutability": "view",
      "type": "function",
      "constant": true
    },
    {
      "inputs": [
        {
          "internalType": "uint256",
          "name": "_amount",
          "type": "uint256"
        }
      ],
      "name": "depositTokens",
      "outputs": [],
      "stateMutability": "nonpayable",
      "type": "function"
    },
    {
      "inputs": [],
      "name": "withdrawTokensWithReward",
      "outputs": [],
      "stateMutability": "nonpayable",
      "type": "function"
    },
    {
      "inputs": [],
      "name": "withdrawBankRemainingReward",
      "outputs": [],
      "stateMutability": "nonpayable",
      "type": "function"
    },
    {
      "inputs": [],
      "name": "getCurrentNumberOfParticipants",
      "outputs": [
        {
          "internalType": "uint256",
          "name": "",
          "type": "uint256"
        }
      ],
      "stateMutability": "view",
      "type": "function",
      "constant": true
    },
    {
      "inputs": [],
      "name": "getCurrentStakedBalance",
      "outputs": [
        {
          "internalType": "uint256",
          "name": "",
          "type": "uint256"
        }
      ],
      "stateMutability": "view",
      "type": "function",
      "constant": true
    },
    {
      "inputs": [],
      "name": "getStakingBalance",
      "outputs": [
        {
          "internalType": "uint256",
          "name": "",
          "type": "uint256"
        }
      ],
      "stateMutability": "view",
      "type": "function",
      "constant": true
    },
    {
      "inputs": [],
      "name": "getWithdrawnStakeWithReward",
      "outputs": [
        {
          "internalType": "uint256",
          "name": "",
          "type": "uint256"
        }
      ],
      "stateMutability": "view",
      "type": "function",
      "constant": true
    },
    {
      "inputs": [],
      "name": "getRemainingRewardSupply",
      "outputs": [
        {
          "internalType": "uint256",
          "name": "",
          "type": "uint256"
        }
      ],
      "stateMutability": "view",
      "type": "function",
      "constant": true
    }
  ],
  "bytecode": "0x60e06040523480156200001157600080fd5b5060405162002be338038062002be38339818101604052810190620000379190620003cc565b620000576200004b6200017b60201b60201c565b6200018360201b60201c565b60008060146101000a81548160ff0219169083151502179055506001808190555082600073ffffffffffffffffffffffffffffffffffffffff168173ffffffffffffffffffffffffffffffffffffffff1603620000e0576040517fd92e233d00000000000000000000000000000000000000000000000000000000815260040160405180910390fd5b82600081036200011c576040517ff45911f000000000000000000000000000000000000000000000000000000000815260040160405180910390fd5b8473ffffffffffffffffffffffffffffffffffffffff1660808173ffffffffffffffffffffffffffffffffffffffff16815250508360a081815250508260c08181525050620001706200024760201b60201c565b5050505050620004d9565b600033905090565b60008060009054906101000a900473ffffffffffffffffffffffffffffffffffffffff169050816000806101000a81548173ffffffffffffffffffffffffffffffffffffffff021916908373ffffffffffffffffffffffffffffffffffffffff1602179055508173ffffffffffffffffffffffffffffffffffffffff168173ffffffffffffffffffffffffffffffffffffffff167f8be0079c531659141344cd1fd0a4f28419497f9722a3daafe3b4186f6b6457e060405160405180910390a35050565b62000257620002bc60201b60201c565b6001600060146101000a81548160ff0219169083151502179055507f62e78cea01bee320cd4e420270b5ea74000d11b0c9f74754ebdbfc544b05a258620002a36200017b60201b60201c565b604051620002b2919062000439565b60405180910390a1565b620002cc6200031160201b60201c565b156200030f576040517f08c379a00000000000000000000000000000000000000000000000000000000081526004016200030690620004b7565b60405180910390fd5b565b60008060149054906101000a900460ff16905090565b600080fd5b600073ffffffffffffffffffffffffffffffffffffffff82169050919050565b600062000359826200032c565b9050919050565b6200036b816200034c565b81146200037757600080fd5b50565b6000815190506200038b8162000360565b92915050565b6000819050919050565b620003a68162000391565b8114620003b257600080fd5b50565b600081519050620003c6816200039b565b92915050565b600080600060608486031215620003e857620003e762000327565b5b6000620003f8868287016200037a565b93505060206200040b86828701620003b5565b92505060406200041e86828701620003b5565b9150509250925092565b62000433816200034c565b82525050565b600060208201905062000450600083018462000428565b92915050565b600082825260208201905092915050565b7f5061757361626c653a2070617573656400000000000000000000000000000000600082015250565b60006200049f60108362000456565b9150620004ac8262000467565b602082019050919050565b60006020820190508181036000830152620004d28162000490565b9050919050565b60805160a05160c0516126716200057260003960008181610398015281816103cc0152818161040c015261044c015260008181610295015281816112b0015281816112dd015281816114c10152818161169a01528181611708015261175a0152600081816102b701528181610a1e01528181610b9101528181610c6801528181610f63015281816111d1015261130601526126716000f3fe608060405234801561001057600080fd5b50600436106100ea5760003560e01c806391b313441161008c578063dd49756e11610066578063dd49756e146101df578063e77f5e60146101fb578063f2fde38b14610205578063fdbe2ca214610221576100ea565b806391b3134414610199578063a0538702146101b7578063a2b56332146101d5576100ea565b80635c975abb116100c85780635c975abb1461013557806362711a5d14610153578063715018a6146101715780638da5cb5b1461017b576100ea565b806306fdde03146100ef578063310cdebc1461010d5780633c8d1dd81461012b575b600080fd5b6100f761023f565b6040516101049190611949565b60405180910390f35b610115610278565b6040516101229190611984565b60405180910390f35b610133610282565b005b61013d610496565b60405161014a91906119ba565b60405180910390f35b61015b6104ac565b6040516101689190611984565b60405180910390f35b6101796104f6565b005b610183610541565b6040516101909190611a16565b60405180910390f35b6101a161056a565b6040516101ae9190611984565b60405180910390f35b6101bf6106d5565b6040516101cc9190611984565b60405180910390f35b6101dd6106df565b005b6101f960048036038101906101f49190611a62565b610b50565b005b61020361109c565b005b61021f600480360381019061021a9190611abb565b611437565b005b6102296114ba565b6040516102369190611984565b60405180910390f35b6040518060400160405280601581526020017f42616e6b207374616b696e6720636f6e7472616374000000000000000000000081525081565b6000600954905090565b61028a6114ef565b61029261156d565b307f0000000000000000000000000000000000000000000000000000000000000000807f000000000000000000000000000000000000000000000000000000000000000073ffffffffffffffffffffffffffffffffffffffff166370a08231846040518263ffffffff1660e01b815260040161030e9190611a16565b602060405180830381865afa15801561032b573d6000803e3d6000fd5b505050506040513d601f19601f8201168201806040525081019061034f9190611afd565b1015610387576040517ff4d678b800000000000000000000000000000000000000000000000000000000815260040160405180910390fd5b6000600281905550426003819055507f00000000000000000000000000000000000000000000000000000000000000006003546103c49190611b59565b6004819055507f000000000000000000000000000000000000000000000000000000000000000060026103f79190611b8d565b6003546104049190611b59565b6005819055507f000000000000000000000000000000000000000000000000000000000000000060036104379190611b8d565b6003546104449190611b59565b6006819055507f000000000000000000000000000000000000000000000000000000000000000060046104779190611b8d565b6003546104849190611b59565b6007819055506104926115b6565b5050565b60008060149054906101000a900460ff16905090565b6000600b60003373ffffffffffffffffffffffffffffffffffffffff1673ffffffffffffffffffffffffffffffffffffffff16815260200190815260200160002060020154905090565b6104fe6114ef565b600061053f576040517f08c379a000000000000000000000000000000000000000000000000000000000815260040161053690611c41565b60405180910390fd5b565b60008060009054906101000a900473ffffffffffffffffffffffffffffffffffffffff16905090565b600080600b60003373ffffffffffffffffffffffffffffffffffffffff1673ffffffffffffffffffffffffffffffffffffffff168152602001908152602001600020600001541415801561060157506000600b60003373ffffffffffffffffffffffffffffffffffffffff1673ffffffffffffffffffffffffffffffffffffffff1681526020019081526020016000206001015414155b610640576040517f08c379a000000000000000000000000000000000000000000000000000000000815260040161063790611cd3565b60405180910390fd5b600b60003373ffffffffffffffffffffffffffffffffffffffff1673ffffffffffffffffffffffffffffffffffffffff16815260200190815260200160002060030154600b60003373ffffffffffffffffffffffffffffffffffffffff1673ffffffffffffffffffffffffffffffffffffffff168152602001908152602001600020600201546106d09190611b59565b905090565b6000600854905090565b6106e7611618565b60026001540361072c576040517f08c379a000000000000000000000000000000000000000000000000000000000815260040161072390611d3f565b60405180910390fd5b6002600181905550600042905080600554111561077e576040517f08c379a000000000000000000000000000000000000000000000000000000000815260040161077590611dd1565b60405180910390fd5b6000600b60003373ffffffffffffffffffffffffffffffffffffffff1673ffffffffffffffffffffffffffffffffffffffff1681526020019081526020016000206000015403610803576040517f08c379a00000000000000000000000000000000000000000000000000000000081526004016107fa90611e3d565b60405180910390fd5b6000600b60003373ffffffffffffffffffffffffffffffffffffffff1673ffffffffffffffffffffffffffffffffffffffff1681526020019081526020016000206001015414610888576040517f08c379a000000000000000000000000000000000000000000000000000000000815260040161087f90611ecf565b60405180910390fd5b6000610892611662565b905081600b60003373ffffffffffffffffffffffffffffffffffffffff1673ffffffffffffffffffffffffffffffffffffffff1681526020019081526020016000206001018190555080600b60003373ffffffffffffffffffffffffffffffffffffffff1673ffffffffffffffffffffffffffffffffffffffff168152602001908152602001600020600301819055506008600081548092919061093590611eef565b9190505550600b60003373ffffffffffffffffffffffffffffffffffffffff1673ffffffffffffffffffffffffffffffffffffffff168152602001908152602001600020600201546009600082825461098e9190611f18565b9250508190555080600260008282546109a79190611b59565b92505081905550600a548210156109c057600a546109c2565b815b600a81905550600081600b60003373ffffffffffffffffffffffffffffffffffffffff1673ffffffffffffffffffffffffffffffffffffffff16815260200190815260200160002060020154610a189190611b59565b905060007f000000000000000000000000000000000000000000000000000000000000000073ffffffffffffffffffffffffffffffffffffffff1663a9059cbb33846040518363ffffffff1660e01b8152600401610a77929190611f4c565b6020604051808303816000875af1158015610a96573d6000803e3d6000fd5b505050506040513d601f19601f82011682018060405250810190610aba9190611fa1565b905080610af3576040517f045c4b0200000000000000000000000000000000000000000000000000000000815260040160405180910390fd5b3373ffffffffffffffffffffffffffffffffffffffff167f1d38be5660a49141210a1bb87a389bafe02b64a55961b9655b4b3f7c1d9f01ff8386604051610b3b929190611fce565b60405180910390a25050505060018081905550565b8060008103610b8b576040517ff45911f000000000000000000000000000000000000000000000000000000000815260040160405180910390fd5b333083807f000000000000000000000000000000000000000000000000000000000000000073ffffffffffffffffffffffffffffffffffffffff1663dd62ed3e85856040518363ffffffff1660e01b8152600401610bea929190611ff7565b602060405180830381865afa158015610c07573d6000803e3d6000fd5b505050506040513d601f19601f82011682018060405250810190610c2b9190611afd565b1015610c63576040517f13be252b00000000000000000000000000000000000000000000000000000000815260040160405180910390fd5b3385807f000000000000000000000000000000000000000000000000000000000000000073ffffffffffffffffffffffffffffffffffffffff166370a08231846040518263ffffffff1660e01b8152600401610cbf9190611a16565b602060405180830381865afa158015610cdc573d6000803e3d6000fd5b505050506040513d601f19601f82011682018060405250810190610d009190611afd565b1015610d38576040517ff4d678b800000000000000000000000000000000000000000000000000000000815260040160405180910390fd5b610d40611618565b600260015403610d85576040517f08c379a0000000000000000000000000000000000000000000000000000000008152600401610d7c90611d3f565b60405180910390fd5b60026001819055506000429050600354811015610dd7576040517f08c379a0000000000000000000000000000000000000000000000000000000008152600401610dce90612092565b60405180910390fd5b6004548110610e1b576040517f08c379a0000000000000000000000000000000000000000000000000000000008152600401610e12906120fe565b60405180910390fd5b6000600b60003373ffffffffffffffffffffffffffffffffffffffff1673ffffffffffffffffffffffffffffffffffffffff1681526020019081526020016000206000015414610ea0576040517f08c379a0000000000000000000000000000000000000000000000000000000008152600401610e979061216a565b60405180910390fd5b80600b60003373ffffffffffffffffffffffffffffffffffffffff1673ffffffffffffffffffffffffffffffffffffffff1681526020019081526020016000206000018190555087600b60003373ffffffffffffffffffffffffffffffffffffffff1673ffffffffffffffffffffffffffffffffffffffff1681526020019081526020016000206002018190555060086000815480929190610f419061218a565b91905055508760096000828254610f589190611b59565b9250508190555060007f000000000000000000000000000000000000000000000000000000000000000073ffffffffffffffffffffffffffffffffffffffff166323b872dd33308c6040518463ffffffff1660e01b8152600401610fbe939291906121d2565b6020604051808303816000875af1158015610fdd573d6000803e3d6000fd5b505050506040513d601f19601f820116820180604052508101906110019190611fa1565b90508061103a576040517f045c4b0200000000000000000000000000000000000000000000000000000000815260040160405180910390fd5b3373ffffffffffffffffffffffffffffffffffffffff167f1449c6dd7851abc30abf37f57715f492010519147cc2652fbc38202c18a6ee908a84604051611082929190611fce565b60405180910390a250506001808190555050505050505050565b6110a46114ef565b6110ac611618565b6002600154036110f1576040517f08c379a00000000000000000000000000000000000000000000000000000000081526004016110e890611d3f565b60405180910390fd5b600260018190555060004290508060075410611142576040517f08c379a00000000000000000000000000000000000000000000000000000000081526004016111399061227b565b60405180910390fd5b600060085414611187576040517f08c379a000000000000000000000000000000000000000000000000000000000815260040161117e906122e7565b60405180910390fd5b600754600a54106111cd576040517f08c379a00000000000000000000000000000000000000000000000000000000081526004016111c490612379565b60405180910390fd5b60007f000000000000000000000000000000000000000000000000000000000000000073ffffffffffffffffffffffffffffffffffffffff166370a08231306040518263ffffffff1660e01b81526004016112289190611a16565b602060405180830381865afa158015611245573d6000803e3d6000fd5b505050506040513d601f19601f820116820180604052508101906112699190611afd565b116112a9576040517f08c379a00000000000000000000000000000000000000000000000000000000081526004016112a0906123e5565b60405180910390fd5b60006002547f00000000000000000000000000000000000000000000000000000000000000006112d99190611f18565b90507f000000000000000000000000000000000000000000000000000000000000000060028190555060007f000000000000000000000000000000000000000000000000000000000000000073ffffffffffffffffffffffffffffffffffffffff1663a9059cbb33846040518363ffffffff1660e01b815260040161135f929190611f4c565b6020604051808303816000875af115801561137e573d6000803e3d6000fd5b505050506040513d601f19601f820116820180604052508101906113a29190611fa1565b9050806113db576040517f045c4b0200000000000000000000000000000000000000000000000000000000815260040160405180910390fd5b3373ffffffffffffffffffffffffffffffffffffffff167f4697c62ceda1934561d0143c6394602e100a76616000e12e6350fa648dc9f0c18385604051611423929190611fce565b60405180910390a250505060018081905550565b61143f6114ef565b600073ffffffffffffffffffffffffffffffffffffffff168173ffffffffffffffffffffffffffffffffffffffff16036114ae576040517f08c379a00000000000000000000000000000000000000000000000000000000081526004016114a590612477565b60405180910390fd5b6114b7816117ed565b50565b60006002547f00000000000000000000000000000000000000000000000000000000000000006114ea9190611f18565b905090565b6114f76118b1565b73ffffffffffffffffffffffffffffffffffffffff16611515610541565b73ffffffffffffffffffffffffffffffffffffffff161461156b576040517f08c379a0000000000000000000000000000000000000000000000000000000008152600401611562906124e3565b60405180910390fd5b565b611575610496565b6115b4576040517f08c379a00000000000000000000000000000000000000000000000000000000081526004016115ab9061254f565b60405180910390fd5b565b6115be61156d565b60008060146101000a81548160ff0219169083151502179055507f5db9ee0a495bf2e6ff9c91a7834c1ba4fdd244a5e8aa4e537bd38aeae4b073aa6116016118b1565b60405161160e9190611a16565b60405180910390a1565b611620610496565b15611660576040517f08c379a0000000000000000000000000000000000000000000000000000000008152600401611657906125bb565b60405180910390fd5b565b600080606490506000601490506000601e9050600080429050806005541115801561168e575060065481105b156116de5760025485857f00000000000000000000000000000000000000000000000000000000000000006116c39190611b8d565b6116cd919061260a565b6116d79190611f18565b9150611788565b80600654111580156116f1575060075481105b1561174c576002548584866117069190611b59565b7f00000000000000000000000000000000000000000000000000000000000000006117319190611b8d565b61173b919061260a565b6117459190611f18565b9150611787565b8060075411611786576002547f00000000000000000000000000000000000000000000000000000000000000006117839190611f18565b91505b5b5b600954600b60003373ffffffffffffffffffffffffffffffffffffffff1673ffffffffffffffffffffffffffffffffffffffff16815260200190815260200160002060020154836117d99190611b8d565b6117e3919061260a565b9550505050505090565b60008060009054906101000a900473ffffffffffffffffffffffffffffffffffffffff169050816000806101000a81548173ffffffffffffffffffffffffffffffffffffffff021916908373ffffffffffffffffffffffffffffffffffffffff1602179055508173ffffffffffffffffffffffffffffffffffffffff168173ffffffffffffffffffffffffffffffffffffffff167f8be0079c531659141344cd1fd0a4f28419497f9722a3daafe3b4186f6b6457e060405160405180910390a35050565b600033905090565b600081519050919050565b600082825260208201905092915050565b60005b838110156118f35780820151818401526020810190506118d8565b60008484015250505050565b6000601f19601f8301169050919050565b600061191b826118b9565b61192581856118c4565b93506119358185602086016118d5565b61193e816118ff565b840191505092915050565b600060208201905081810360008301526119638184611910565b905092915050565b6000819050919050565b61197e8161196b565b82525050565b60006020820190506119996000830184611975565b92915050565b60008115159050919050565b6119b48161199f565b82525050565b60006020820190506119cf60008301846119ab565b92915050565b600073ffffffffffffffffffffffffffffffffffffffff82169050919050565b6000611a00826119d5565b9050919050565b611a10816119f5565b82525050565b6000602082019050611a2b6000830184611a07565b92915050565b600080fd5b611a3f8161196b565b8114611a4a57600080fd5b50565b600081359050611a5c81611a36565b92915050565b600060208284031215611a7857611a77611a31565b5b6000611a8684828501611a4d565b91505092915050565b611a98816119f5565b8114611aa357600080fd5b50565b600081359050611ab581611a8f565b92915050565b600060208284031215611ad157611ad0611a31565b5b6000611adf84828501611aa6565b91505092915050565b600081519050611af781611a36565b92915050565b600060208284031215611b1357611b12611a31565b5b6000611b2184828501611ae8565b91505092915050565b7f4e487b7100000000000000000000000000000000000000000000000000000000600052601160045260246000fd5b6000611b648261196b565b9150611b6f8361196b565b9250828201905080821115611b8757611b86611b2a565b5b92915050565b6000611b988261196b565b9150611ba38361196b565b9250828202611bb18161196b565b91508282048414831517611bc857611bc7611b2a565b5b5092915050565b7f43616e27742072656e6f756e636520636f6e7472616374206f776e657273686960008201527f702e000000000000000000000000000000000000000000000000000000000000602082015250565b6000611c2b6022836118c4565b9150611c3682611bcf565b604082019050919050565b60006020820190508181036000830152611c5a81611c1e565b9050919050565b7f4e6f74207061727469636970616e74206f72207374696c6c207374616b696e6760008201527f2100000000000000000000000000000000000000000000000000000000000000602082015250565b6000611cbd6021836118c4565b9150611cc882611c61565b604082019050919050565b60006020820190508181036000830152611cec81611cb0565b9050919050565b7f5265656e7472616e637947756172643a207265656e7472616e742063616c6c00600082015250565b6000611d29601f836118c4565b9150611d3482611cf3565b602082019050919050565b60006020820190508181036000830152611d5881611d1c565b9050919050565b7f576974686472617720706572696f64206973206e6f742073746172746564207960008201527f6574210000000000000000000000000000000000000000000000000000000000602082015250565b6000611dbb6023836118c4565b9150611dc682611d5f565b604082019050919050565b60006020820190508181036000830152611dea81611dae565b9050919050565b7f596f7520686176656e2774206265656e207061727469636970616e7421000000600082015250565b6000611e27601d836118c4565b9150611e3282611df1565b602082019050919050565b60006020820190508181036000830152611e5681611e1a565b9050919050565b7f596f7527766520616c7265616479207769746864726177207468652066756e6460008201527f7321000000000000000000000000000000000000000000000000000000000000602082015250565b6000611eb96022836118c4565b9150611ec482611e5d565b604082019050919050565b60006020820190508181036000830152611ee881611eac565b9050919050565b6000611efa8261196b565b915060008203611f0d57611f0c611b2a565b5b600182039050919050565b6000611f238261196b565b9150611f2e8361196b565b9250828203905081811115611f4657611f45611b2a565b5b92915050565b6000604082019050611f616000830185611a07565b611f6e6020830184611975565b9392505050565b611f7e8161199f565b8114611f8957600080fd5b50565b600081519050611f9b81611f75565b92915050565b600060208284031215611fb757611fb6611a31565b5b6000611fc584828501611f8c565b91505092915050565b6000604082019050611fe36000830185611975565b611ff06020830184611975565b9392505050565b600060408201905061200c6000830185611a07565b6120196020830184611a07565b9392505050565b7f4465706f73697420706572696f64206973206e6f74207374617274656420796560008201527f7421000000000000000000000000000000000000000000000000000000000000602082015250565b600061207c6022836118c4565b915061208782612020565b604082019050919050565b600060208201905081810360008301526120ab8161206f565b9050919050565b7f4465706f73697420706572696f64206578706972656421000000000000000000600082015250565b60006120e86017836118c4565b91506120f3826120b2565b602082019050919050565b60006020820190508181036000830152612117816120db565b9050919050565b7f596f7527766520616c7265616479207061727469636970617465642100000000600082015250565b6000612154601c836118c4565b915061215f8261211e565b602082019050919050565b6000602082019050818103600083015261218381612147565b9050919050565b60006121958261196b565b91507fffffffffffffffffffffffffffffffffffffffffffffffffffffffffffffffff82036121c7576121c6611b2a565b5b600182019050919050565b60006060820190506121e76000830186611a07565b6121f46020830185611a07565b6122016040830184611975565b949350505050565b7f42616e6b206f776e65722063616e2774207769746864726177206265666f726560008201527f20523320706572696f64207374617274732e0000000000000000000000000000602082015250565b60006122656032836118c4565b915061227082612209565b604082019050919050565b6000602082019050818103600083015261229481612258565b9050919050565b7f4e6f7420616c6c207374616b657273206c6566742074686520706f6f6c2e0000600082015250565b60006122d1601e836118c4565b91506122dc8261229b565b602082019050919050565b60006020820190508181036000830152612300816122c4565b9050919050565b7f546865726520776572652077697468647261777320696e20523320706572696f60008201527f642e000000000000000000000000000000000000000000000000000000000000602082015250565b60006123636022836118c4565b915061236e82612307565b604082019050919050565b6000602082019050818103600083015261239281612356565b9050919050565b7f4e6f206d6f726520746f6b656e73206c65667420696e2074686520706f6f6c2e600082015250565b60006123cf6020836118c4565b91506123da82612399565b602082019050919050565b600060208201905081810360008301526123fe816123c2565b9050919050565b7f4f776e61626c653a206e6577206f776e657220697320746865207a65726f206160008201527f6464726573730000000000000000000000000000000000000000000000000000602082015250565b60006124616026836118c4565b915061246c82612405565b604082019050919050565b6000602082019050818103600083015261249081612454565b9050919050565b7f4f776e61626c653a2063616c6c6572206973206e6f7420746865206f776e6572600082015250565b60006124cd6020836118c4565b91506124d882612497565b602082019050919050565b600060208201905081810360008301526124fc816124c0565b9050919050565b7f5061757361626c653a206e6f7420706175736564000000000000000000000000600082015250565b60006125396014836118c4565b915061254482612503565b602082019050919050565b600060208201905081810360008301526125688161252c565b9050919050565b7f5061757361626c653a2070617573656400000000000000000000000000000000600082015250565b60006125a56010836118c4565b91506125b08261256f565b602082019050919050565b600060208201905081810360008301526125d481612598565b9050919050565b7f4e487b7100000000000000000000000000000000000000000000000000000000600052601260045260246000fd5b60006126158261196b565b91506126208361196b565b9250826126305761262f6125db565b5b82820490509291505056fea2646970667358221220b322fa4e2431ddc77a9ff5ef6afff3082c33c1ebc6679e852f9a1dafa035839564736f6c63430008110033",
  "immutableReferences": {
    "999": [
      {
        "length": 32,
        "start": 695
      },
      {
        "length": 32,
        "start": 2590
      },
      {
        "length": 32,
        "start": 2961
      },
      {
        "length": 32,
        "start": 3176
      },
      {
        "length": 32,
        "start": 3939
      },
      {
        "length": 32,
        "start": 4561
      },
      {
        "length": 32,
        "start": 4870
      }
    ],
    "1001": [
      {
        "length": 32,
        "start": 661
      },
      {
        "length": 32,
        "start": 4784
      },
      {
        "length": 32,
        "start": 4829
      },
      {
        "length": 32,
        "start": 5313
      },
      {
        "length": 32,
        "start": 5786
      },
      {
        "length": 32,
        "start": 5896
      },
      {
        "length": 32,
        "start": 5978
      }
    ],
    "1005": [
      {
        "length": 32,
        "start": 920
      },
      {
        "length": 32,
        "start": 972
      },
      {
        "length": 32,
        "start": 1036
      },
      {
        "length": 32,
        "start": 1100
      }
    ]
  },
  "source": "// SPDX-License-Identifier: MIT\n\npragma solidity >=0.8.11;\n\n\nimport \"@openzeppelin/contracts/access/Ownable.sol\";\nimport \"@openzeppelin/contracts/security/ReentrancyGuard.sol\";\nimport \"@openzeppelin/contracts/security/Pausable.sol\";\nimport \"@openzeppelin/contracts/token/ERC20/IERC20.sol\";\n\n\nerror TokenTransferFailed();\nerror NeedsMoreThanZero();\nerror ZeroAddress();\nerror InsufficientBalance();\nerror InsufficientAllowance();\n\ncontract BankContract is Ownable, Pausable, ReentrancyGuard {\n\n    string public constant name = \"Bank staking contract\";\n\n    // Stake and reward token.\n    IERC20 immutable token;\n\n    // token reward pool of ERC20 tokens\n    uint256 private immutable totalRewardSupply;\n    // current withdrawn amount of staking rewards\n    uint256 private withdrawnRewards;\n    // time constant in seconds for deposit, lock and 3 sub-pool periods\n    uint256 immutable T; \n    // initial time t0 when contract starts executing\n    // in seconds (elapsed from epoch)\n    // time periods\n    uint256 private t_zero;  \n    uint256 private t_deposit_period_end;  \n    uint256 private t_lock_period_end;\n    uint256 private t_withdraw_r1_period_end;\n    uint256 private t_withdraw_r2_period_end;\n    \n    // current number of participants\n    uint256 private stakersCount;\n    // current amount of deposited balance\n    uint256 private totalStakedBalance;\n    // last time participant withdrew funds\n    uint256 private t_last_withdraw;\n\n    struct StakeInfo {        \n        uint256 depositTime;\n        uint256 withdrawTime;        \n        uint256 amount; \n        uint256 reward;       \n    }\n\n    mapping(address => StakeInfo) private stakers;\n\n    modifier moreThanZero(uint256 amount) {\n        if (amount == 0) {\n            revert NeedsMoreThanZero();\n        }\n        _;\n    }\n\n    modifier isZeroAddress(address _address) {\n        if (_address == address(0)) {\n            revert ZeroAddress();\n        }\n        _;\n    }\n\n    modifier checkSufficientAccountBalance(address _address, uint256 amount) {\n        if (token.balanceOf(_address) < amount) {\n            revert InsufficientBalance();\n        }\n        _;\n    }\n\n    modifier isSpenderApproved(address owner, address spender, uint256 amount) {\n        if (token.allowance(owner, spender) < amount) {\n            revert InsufficientAllowance();\n        }\n        _;\n    }\n\n    event Staked(address indexed from, uint256 amount, uint256 time);\n    event UnstakedAndRewarded(address indexed from, uint256 amount, uint256 time);\n    event BankTokensWithdrawn(address indexed from, uint256 amount, uint256 time);\n \n    // \"token reward pool of R XYZ tokens, deposited to the contract by the contract owner (bank owner) at contract deployment.\"\n    // let's assume contract deployment has three steps:\n    // 1. contract creation\n    // 2. owner funds the bank contract account with reward tokens\n    // 3. contract initialization, when bank contract becomes active (unpaused).\n  \n    constructor(address _tokenAddress, uint256 _totalRewardSupply, uint256 timeConstant) \n        isZeroAddress(_tokenAddress) \n        moreThanZero(_totalRewardSupply) \n    {\n        token = IERC20(_tokenAddress);\n        totalRewardSupply = _totalRewardSupply;\n        T = timeConstant;\n\n        // pause the contract until the owner funds the account and call the init function\n        _pause();\n    }\n\n    // starting contract if owner already funded bank contract with sufficient reward pool tokens\n    function contractInit() \n        external \n        onlyOwner \n        whenPaused \n        checkSufficientAccountBalance(address(this), totalRewardSupply)\n    {\n        withdrawnRewards = 0;\n\n        t_zero = block.timestamp;\n        t_deposit_period_end = t_zero + T;\n        t_lock_period_end = t_zero + 2*T;\n        t_withdraw_r1_period_end = t_zero + 3*T;\n        t_withdraw_r2_period_end = t_zero + 4*T;\n\n        _unpause();\n    }\n\n    // Override Ownable renounceOwnership function\n    function renounceOwnership() public view override onlyOwner {\n        require(false, \"Can't renounce contract ownership.\");\n    }\n\n    //staking tokens - and owner is able to stake coins\n    function depositTokens(uint256 _amount) \n        external\n        moreThanZero(_amount)\n        isSpenderApproved(msg.sender,address(this),_amount)\n        checkSufficientAccountBalance(msg.sender,_amount) \n        whenNotPaused\n        nonReentrant\n    { \n        uint t_now = block.timestamp;\n        require(t_now >= t_zero, \"Deposit period is not started yet!\");      \n        require(t_now < t_deposit_period_end, \"Deposit period expired!\"); \n        require(stakers[msg.sender].depositTime == 0, \"You've already participated!\");\n        \n        // update the participant staking info\n        stakers[msg.sender].depositTime = t_now;\n        stakers[msg.sender].amount = _amount;\n        // update the staking global info\n        stakersCount++;\n        totalStakedBalance += _amount;\n\n        //transfering token for staking\n        bool success = token.transferFrom(msg.sender, address(this), _amount);       \n        if (!success) {\n            revert TokenTransferFailed(); \n        }    \n        emit Staked(msg.sender, _amount, t_now);\n    }\n\n    // called by participants to unstake and get reward\n    function withdrawTokensWithReward() \n        external\n        whenNotPaused\n        nonReentrant\n    { \n        uint t_now = block.timestamp;\n        require(t_lock_period_end <= t_now, \"Withdraw period is not started yet!\");      \n        require(stakers[msg.sender].depositTime != 0, \"You haven't been participant!\");\n        require(stakers[msg.sender].withdrawTime == 0, \"You've already withdraw the funds!\");\n\n        uint reward = calculateReward();\n\n        // update the participant staking info\n        stakers[msg.sender].withdrawTime = t_now;\n        stakers[msg.sender].reward = reward;\n        // update the staking global info\n        stakersCount--;\n        totalStakedBalance -= stakers[msg.sender].amount;\n        // remainingRewardSupply -= reward;\n        withdrawnRewards += reward;\n        // always store max time - proveri ovo kako radi na ethereum-u\n        t_last_withdraw = t_now >= t_last_withdraw ? t_now : t_last_withdraw;\n        // calculate amount to transfer\n        uint sum_amount = stakers[msg.sender].amount + reward;\n        //transfering tokens, participant stake and reward\n        bool success = token.transfer(msg.sender, sum_amount);        \n        if (!success) {\n            revert TokenTransferFailed(); \n        }    \n        emit UnstakedAndRewarded(msg.sender, sum_amount, t_now);\n    }\n\n    function calculateReward() \n        private \n        view \n        returns(uint256)\n    {\n        uint256 R = 100; // reward pool\n        // 3 subpools\n        uint256 R1 = 20; // pool allocation R1\n        uint256 R2 = 30; // pool allocation R2\n        //uint256 R3 = 50; // pool allocation R3\n        // remaining unlocked tokens for rewards in subpool\n        uint256 SubPoolSupply;\n\n        uint t_now = block.timestamp;\n\n        if(t_lock_period_end <= t_now && t_now < t_withdraw_r1_period_end)\n        {\n            // R1 - unlocked 20% pool for rewards\n            SubPoolSupply = totalRewardSupply*R1/R - withdrawnRewards;\n        } \n        else if(t_withdraw_r1_period_end <= t_now && t_now < t_withdraw_r2_period_end)\n        {\n            // R2 + remainder R1 = unlocked 20% + 30% - already withdrawn rewards\n            SubPoolSupply = totalRewardSupply*(R1+R2)/R - withdrawnRewards;\n        }\n        else if(t_withdraw_r2_period_end <= t_now)\n        {\n            // R3 + remainders R1 and R2 = unlocked 20% + 30% + 50% - already withdrawn rewards\n            SubPoolSupply = totalRewardSupply - withdrawnRewards;\n        }\n\n        return SubPoolSupply * stakers[msg.sender].amount / totalStakedBalance;\n    }\n   \n\n    // bank is able to remove the remaning reward after all stakers left the pool before R3 period.\n    // in R3 period if at least one stakers remains, bank can't withraw remaining rewards anymore.\n    function withdrawBankRemainingReward() \n        external\n        onlyOwner\n        whenNotPaused\n        nonReentrant\n    {\n        uint t_now = block.timestamp;\n        require(t_withdraw_r2_period_end < t_now, \"Bank owner can't withdraw before R3 period starts.\");\n        require(stakersCount == 0, \"Not all stakers left the pool.\"); \n        require(t_last_withdraw < t_withdraw_r2_period_end, \"There were withdraws in R3 period.\");\n        require(token.balanceOf(address(this)) > 0, \"No more tokens left in the pool.\");\n\n        // remaining reward amount collected by the Bank owner\n        uint remainingRewardSupply = totalRewardSupply - withdrawnRewards; // token.balanceOf(address(this));\n        withdrawnRewards = totalRewardSupply;\n        // Bank transfers remaining reward tokens\n        bool success = token.transfer(msg.sender, remainingRewardSupply);      \n        if (!success) {\n            revert TokenTransferFailed(); \n        }    \n        emit BankTokensWithdrawn(msg.sender, remainingRewardSupply, t_now);\n    }\n\n    function getCurrentNumberOfParticipants() public view returns(uint256){\n        return stakersCount;\n    }\n\n    function getCurrentStakedBalance() public view returns(uint256){\n        return totalStakedBalance;\n    }\n\n    function getStakingBalance() public view returns(uint256){\n        return stakers[msg.sender].amount;\n    }\n\n    function getWithdrawnStakeWithReward() public view returns(uint256){\n        require(stakers[msg.sender].depositTime != 0 && stakers[msg.sender].withdrawTime != 0,\n        \"Not participant or still staking!\");\n        return stakers[msg.sender].amount + stakers[msg.sender].reward;\n    }\n\n    function getRemainingRewardSupply() public view returns(uint256){\n        return totalRewardSupply - withdrawnRewards;\n    }\n   \n}\n",
  "sourcePath": "/home/nenadr/workspace/ethereum/truffle/first_project/contracts/BankContract.sol",
  "compiler": {
    "name": "solc",
    "version": "0.8.17+commit.8df45f5f.Emscripten.clang"
  },
  "schemaVersion": "3.4.10",
  "updatedAt": "2022-10-13T16:25:14.515Z",
  "networkType": "ethereum",
  "devdoc": {
    "kind": "dev",
    "methods": {
      "owner()": {
        "details": "Returns the address of the current owner."
      },
      "paused()": {
        "details": "Returns true if the contract is paused, and false otherwise."
      },
      "renounceOwnership()": {
        "details": "Leaves the contract without owner. It will not be possible to call `onlyOwner` functions anymore. Can only be called by the current owner. NOTE: Renouncing ownership will leave the contract without an owner, thereby removing any functionality that is only available to the owner."
      },
      "transferOwnership(address)": {
        "details": "Transfers ownership of the contract to a new account (`newOwner`). Can only be called by the current owner."
      }
    },
    "version": 1
  },
  "userdoc": {
    "kind": "user",
    "methods": {},
    "version": 1
  }
}